{
  "contractName": "Bank",
  "abi": [
    {
      "constant": false,
      "inputs": [],
      "name": "deposit",
      "outputs": [],
      "payable": true,
      "stateMutability": "payable",
      "type": "function"
    },
    {
      "constant": false,
      "inputs": [],
      "name": "withdraw",
      "outputs": [],
      "payable": false,
      "stateMutability": "nonpayable",
      "type": "function"
    },
    {
      "constant": true,
      "inputs": [],
      "name": "bankBalance",
      "outputs": [
        {
          "internalType": "uint256",
          "name": "",
          "type": "uint256"
        }
      ],
      "payable": false,
      "stateMutability": "view",
      "type": "function"
    },
    {
      "constant": true,
      "inputs": [],
      "name": "balance",
      "outputs": [
        {
          "internalType": "uint256",
          "name": "",
          "type": "uint256"
        }
      ],
      "payable": false,
      "stateMutability": "view",
      "type": "function"
    }
  ],
  "bytecode": "0x608060405234801561001057600080fd5b506102ff806100206000396000f3fe60806040526004361061003f5760003560e01c806328657aa5146100445780633ccfd60b1461006f578063b69ef8a814610086578063d0e30db0146100b1575b600080fd5b34801561005057600080fd5b506100596100bb565b6040518082815260200191505060405180910390f35b34801561007b57600080fd5b506100846100c3565b005b34801561009257600080fd5b5061009b6101f2565b6040518082815260200191505060405180910390f35b6100b9610238565b005b600047905090565b670de0b6b3a76400006000803373ffffffffffffffffffffffffffffffffffffffff1673ffffffffffffffffffffffffffffffffffffffff16815260200190815260200160002054101561011657600080fd5b3373ffffffffffffffffffffffffffffffffffffffff166108fc670de0b6b3a76400009081150290604051600060405180830381858888f19350505050158015610164573d6000803e3d6000fd5b50670de0b6b3a76400006000803373ffffffffffffffffffffffffffffffffffffffff1673ffffffffffffffffffffffffffffffffffffffff16815260200190815260200160002054036000803373ffffffffffffffffffffffffffffffffffffffff1673ffffffffffffffffffffffffffffffffffffffff16815260200190815260200160002081905550565b60008060003373ffffffffffffffffffffffffffffffffffffffff1673ffffffffffffffffffffffffffffffffffffffff16815260200190815260200160002054905090565b3447101561024557600080fd5b346000803373ffffffffffffffffffffffffffffffffffffffff1673ffffffffffffffffffffffffffffffffffffffff16815260200190815260200160002054016000803373ffffffffffffffffffffffffffffffffffffffff1673ffffffffffffffffffffffffffffffffffffffff1681526020019081526020016000208190555056fea265627a7a7231582060e8ee20bbfad6be3e41ae693d5c4163ed3b284ee7984d57866b3e8b3c50dd8464736f6c63430005100032",
  "source": "// SPDX-License-Identifier: MIT\npragma solidity ^0.5.16;\n\ncontract Bank {\n    mapping(address => uint256) balances;\n\n    function deposit() public payable {\n        require(address(this).balance >= msg.value);\n        balances[msg.sender] = balances[msg.sender] + msg.value;\n    }\n\n    function withdraw() public {\n        require(balances[msg.sender] >= 1*10**18);\n        msg.sender.transfer(1*10**18);\n        balances[msg.sender] = balances[msg.sender] - 1*10**18;\n    }\n\n    function bankBalance() public view returns(uint256) {\n        return address(this).balance;\n    }\n\n    function balance() public view returns(uint256) {\n        return balances[msg.sender];\n    }\n}",
  "sourcePath": "/home/sottiz/Documents/BlockchainPublic/eval_solidity/contracts/Bank.sol",
  "compiler": {
    "name": "solc",
    "version": "0.5.16+commit.9c3226ce.Emscripten.clang"
  },
  "schemaVersion": "3.4.3",
  "updatedAt": "2021-12-01T16:19:34.220Z",
  "networkType": "ethereum",
  "devdoc": {
    "methods": {}
  },
  "userdoc": {
    "methods": {}
  }
}