{
  "contractName": "Bank",
  "abi": [
    {
      "constant": true,
      "inputs": [
        {
          "internalType": "uint256",
          "name": "",
          "type": "uint256"
        }
      ],
      "name": "clients",
      "outputs": [
        {
          "internalType": "address payable",
          "name": "",
          "type": "address"
        }
      ],
      "payable": false,
      "stateMutability": "view",
      "type": "function"
    },
    {
      "constant": false,
      "inputs": [],
      "name": "deposit",
      "outputs": [],
      "payable": true,
      "stateMutability": "payable",
      "type": "function"
    },
    {
      "constant": false,
      "inputs": [],
      "name": "withdraw",
      "outputs": [],
      "payable": true,
      "stateMutability": "payable",
      "type": "function"
    },
    {
      "constant": true,
      "inputs": [],
      "name": "bankBalance",
      "outputs": [
        {
          "internalType": "uint256",
          "name": "",
          "type": "uint256"
        }
      ],
      "payable": false,
      "stateMutability": "view",
      "type": "function"
    },
    {
      "constant": true,
      "inputs": [],
      "name": "balance",
      "outputs": [
        {
          "internalType": "uint256",
          "name": "",
          "type": "uint256"
        }
      ],
      "payable": false,
      "stateMutability": "view",
      "type": "function"
    }
  ],
  "bytecode": "0x608060405234801561001057600080fd5b506102de806100206000396000f3fe60806040526004361061004a5760003560e01c806328657aa51461004f5780633ccfd60b1461007a578063b69ef8a814610084578063d0e30db0146100af578063f88af21d146100b9575b600080fd5b34801561005b57600080fd5b50610064610134565b6040518082815260200191505060405180910390f35b61008261013c565b005b34801561009057600080fd5b506100996101d7565b6040518082815260200191505060405180910390f35b6100b761021e565b005b3480156100c557600080fd5b506100f2600480360360208110156100dc57600080fd5b810190808035906020019092919050505061026d565b604051808273ffffffffffffffffffffffffffffffffffffffff1673ffffffffffffffffffffffffffffffffffffffff16815260200191505060405180910390f35b600047905090565b34600160003373ffffffffffffffffffffffffffffffffffffffff1673ffffffffffffffffffffffffffffffffffffffff16815260200190815260200160002054101561018857600080fd5b34600160003373ffffffffffffffffffffffffffffffffffffffff1673ffffffffffffffffffffffffffffffffffffffff16815260200190815260200160002060008282540392505081905550565b6000600160003373ffffffffffffffffffffffffffffffffffffffff1673ffffffffffffffffffffffffffffffffffffffff16815260200190815260200160002054905090565b34600160003373ffffffffffffffffffffffffffffffffffffffff1673ffffffffffffffffffffffffffffffffffffffff16815260200190815260200160002060008282540192505081905550565b6000818154811061027a57fe5b906000526020600020016000915054906101000a900473ffffffffffffffffffffffffffffffffffffffff168156fea265627a7a72315820c34a1279b97d11ae8868726b414924726bfa143da03002bae47932555003256764736f6c63430005100032",
  "source": "// SPDX-License-Identifier: MIT\npragma solidity ^0.5.16;\n\ncontract Bank {\n    address payable[] public clients;\n    mapping(address => uint256) balances;\n\n    function deposit() public payable {\n        balances[msg.sender] += msg.value;\n    }\n\n    function withdraw() public payable {\n        require(balances[msg.sender] >= msg.value);\n        balances[msg.sender] -= msg.value;\n    }\n\n    function bankBalance() public view returns(uint256) {\n        return address(this).balance;\n    }\n\n    function balance() public view returns(uint256) {\n        return balances[msg.sender];\n    }\n}",
  "sourcePath": "/home/sottiz/Documents/BlockchainPublic/eval_solidity/contracts/Bank.sol",
  "compiler": {
    "name": "solc",
    "version": "0.5.16+commit.9c3226ce.Emscripten.clang"
  },
  "schemaVersion": "3.4.3",
  "updatedAt": "2021-12-01T14:12:35.523Z",
  "networkType": "ethereum",
  "devdoc": {
    "methods": {}
  },
  "userdoc": {
    "methods": {}
  }
}